:0420000007EF10F0E6
:0A2008004C8214ED3EF07FEF3DF036
:10201800000102030405060708092A002B202023D3
:10202800434F525249454E444F232020200020233D
:1020380023434F525249454E444F23232020002327
:102048002023434F525249454E444F23202320001A
:10205800232323434F525249454E444F23232320E1
:10206800002D2D2D2D444554454E49444F2D2D2DE1
:102078002D002D2D2D46494E414C495A41444F2D96
:0D2088002D2D0054494D45523A00730000C3
:10793C00010EB8EC3CF021EC3DF01200020EB8EC5C
:08794C003CF021EC3DF01200BB
:107955000F27FFFF040A20FF010101E803326E84AF
:107965008484923250FEEC3CF01200326E84948492
:10797500923250FEEC3CF01200336E3350B1EC3CC9
:10798500F021EC3DF012004A504B10D8B412004AD9
:1079950006D8A04B061200336E338E3350B8EC3C3C
:1079A500F021EC3DF01200D59ED58CD59AD596D513
:1079B50080D582D584D10ED66ED768F28A1200356D
:1079C500EC3DF0D6EC3CF0F28ED58E5BEC3EF09EB5
:1079D500EC3CF0A4EC3CF01200E2EC3CF00EEC3D8B
:1079E500F0A2EC3EF0E6EC3DF062EC3DF070EC3FD1
:1079F500F0ECEC3EF0F5D7316E0F0E8C168480312D
:107A050050F00B8C1284900F0E8C1684803138F058
:107A15000B8C1284901200000ECEEC3CF08B0E33D2
:107A25006E200E346E4BEC3DF00C0ECEEC3CF0921D
:107A35000E336E200E346E4BEC3DF01200F00E95B9
:107A450012849484828480000E83BE010E316E847C
:107A5500908480835084903150D8A4F4D784920FB9
:107A65000E95161200000E896E000E8A6E000E8BA2
:107A75006E000E8C6E000E8D6E9268936894680C85
:107A85000E956E000E966E070EB46E0F0EC16E1239
:107A9500000CD033C0F6FF34C0F7FF0800F550B135
:107AA500EC3CF021EC3DF0334A342A33C0F6FF3488
:107AB500C0F7FF0800F5500009D8B41200EAD71F37
:107AC50004D8A412001F04D8A412004704D8A41295
:107AD500003D503E10D8B41200010E476E08500408
:107AE500E10B0E075CD8A012003D06D8A03E0600AB
:107AF5000E086E000E076E1200550EF66E790EF723
:107B05006E000EF86E00EE3DF010EE0DF00900F57A
:107B1500CFEEFFE550E150FAE100EE01F0220EEE66
:107B25006AE806FDE14C904C92000EF86E0001EFFC
:107B3500EF3CF033503410D8B418D0010E356E0434
:107B4500D0D89033363436352A34AEFAD73350315F
:107B55005C34503258D8A004D03350315E345032A2
:107B65005AD89034323332352EF1D731C031F03214
:107B7500C032F01200000E3C6E000E3B6E385039DC
:107B850010D8B41CD0010E3A6E04D0D890383639CE
:107B9500363A2A39AEFAD7D8903B363C3638503685
:107BA5005C39503758D8A005D03850365E39503733
:107BB5005A3B80D890393238323A2EEDD73BC03611
:107BC500F03CC037F01200E80E051808E1030E0678
:107BD50018D8A404D0000E0A6E010E096ED00E0549
:107BE5001808E1070E0618D8A404D0000E0A6E0284
:107BF5000E096EB80E051808E10B0E0618D8A40478
:107C0500D0000E0A6E030E096EA00E051809E10FCD
:107C15000E0618D8A41200000E0A6E040E096E1284
:107C25000012000600FACF23F0FBCF24F0E9CF25A0
:107C3500F0EACF26F0E1CF27F0E2CF28F0D9CF291F
:107C4500F0DACF2AF0F3CF2BF0F4CF2CF0F6CF2DCE
:107C5500F0F7CF2EF0F8CF2FF0F5CF30F0F2A40AE1
:107C6500D0D10ED66ED768F294C6EC3CF0054A0624
:107C75002A074A082A30C0F5FF2FC0F8FF2EC0F7A3
:107C8500FF2DC0F6FF2CC0F4FF2BC0F3FF2AC0DA8E
:107C9500FF29C0D9FF28C0E2FF27C0E1FF26C0EABF
:107CA500FF25C0E9FF24C0FBFF23C0FAFF4C92115A
:107CB500000F0E9516969496929690000E4B6E1E9A
:107CC5000E4A6E4A504B10D8A4FCD7020EB8EC3CB5
:107CD500F0000E4B6E010E4A6E4A504B10D8A4FCB4
:107CE500D7280EB8EC3CF0000E4B6E010E4A6E4ADA
:107CF500504B10D8A4FCD70C0EB8EC3CF0000E4B42
:107D05006E010E4A6E4A504B10D8A4FCD7010EB82E
:107D1500EC3CF0000E4B6E010E4A6E4A504B10D8EB
:107D2500A4FCD7060EB8EC3CF0000E4B6E010E4AD3
:107D35006E4A504B10D8A4FCD721EC3DF012000040
:107D45000E326E000E316E000E346E000E336E0074
:107D55000E366E000E356E81B806D03D4A3E2A00BD
:107D65000E086E000E076E81BA07D03D06D8A03EFC
:107D750006000E086E000E076E81BC16D01E2A1E68
:107D850004D8A406D0010E1F6E000E086E000E0763
:107D95006E020E1E18D8A408D0000E1F6E000E1E0F
:107DA5006E000E086E000E076E81BE1200000E1FDB
:107DB5006E270E3E6E0F0E3D6E000E086E000E070E
:107DC5006E000E0A6E000E096E000E066E000E05A0
:107DD5006E12001F50D8A40DD0400ECEEC3CF069B9
:107DE5000E336E200E346E4BEC3DF0000E0C6E0122
:107DF5000E0B6E3D503E10D8B453D00F0E3D5C2790
:107E05000E3E58D8B04DD01F04D8B435D049D04017
:107E15000ECEEC3CF0580E336E200E346E4BEC3D1E
:107E2500F03FD0400ECEEC3CF0360E336E200E34D3
:107E35006E4BEC3DF035D0400ECEEC3CF0470E33AA
:107E45006E200E346E4BEC3DF02BD0400ECEEC3C4C
:107E5500F0250E336E200E346E4BEC3DF0000E0611
:107E65006E000E056E000E0C6E000E0B6E000E0AF7
:107E75006E000E096E15D009C035F00AC036F03611
:107E850050000AD8A40DD03550010AD8B4C0D70384
:107E95000AD8B4C7D7010AD8B4CED7070AD8B4D5FB
:107EA500D73D503E10D8B407D00F0E3D1815E12729
:107EB5000E3E18D8A412001F04D8A412000B500CB3
:107EC50010D8A41200400ECEEC3CF07A0E336E2092
:107ED5000E346E4BEC3DF0120012003DC036F03E04
:107EE500C037F0030E396EE80E386EBDEC3DF03646
:107EF500500001626F030E346EE80E336E3DC031E3
:107F0500F03EC032F09CEC3DF031C036F032C03767
:107F1500F0000E396E640E386EBDEC3DF036500043
:107F250001636F030E346EE80E336E3DC031F03ED3
:107F3500C032F09CEC3DF031C066F032C067F00015
:107F45000E346E640E336E66C031F067C032F09C3D
:107F5500EC3DF031C036F032C037F0000E396E0A14
:107F65000E386EBDEC3DF036500001646F030E34E3
:107F75006EE80E336E3DC031F03EC032F09CEC3DF4
:107F8500F031C066F032C067F0000E346E640E3317
:107F95006E66C031F067C032F09CEC3DF031C060D8
:107FA500F032C061F060C031F061C032F0000E34D3
:107FB5006E0A0E336E9CEC3DF031500001656F107A
:107FC5000E3D5C270E3E58D8B01200070ECEEC3C95
:107FD500F000016251300FBFEC3CF00001635130FD
:107FE5000FBFEC3CF000016451300FBFEC3CF000DA
:0B7FF500016551300FBFEC3CF01200A2
:020000040020DA
:08000000FFFFFFFFFFFFFFFF00
:020000040030CA
:0E000000240E3F1EFF8181FF0FC00FE00F4056
:00000001FF
